:100000000C9464000C948C000C948C000C948C0068
:100010000C948C000C948C000C948C000C948C0030
:100020000C948C000C948C000C948C000C943E0D61
:100030000C948C000C948C000C948C000C948C0010
:100040000C94C5040C948C000C9435060C94830617
:100050000C948C000C948C000C948C000C948C00F0
:100060000C948C000C948C000000000024002700ED
:100070002A0000000000250028002B0000000000DE
:1000800023002600290004040404040404040202DA
:100090000202020203030303030301020408102007
:1000A0004080010204081020010204081020000012
:1000B0000007000201000003040600000000000029
:1000C0000000E002EF07D90211241FBECFEFD8E0F5
:1000D000DEBFCDBF11E0A0E0B1E0EAE7F2E202C08E
:1000E00005900D92A437B107D9F712E0A4E7B1E06B
:1000F00001C01D92A836B107E1F710E0C6ECD0E0D0
:1001000004C02297FE010E94F510C23CD107C9F736
:100110000E94EB0B0C9430110C940000CF93DF93F2
:10012000BC018230910510F462E070E0A09166029B
:10013000B0916702ED01E0E0F0E040E050E021C066
:10014000888199818617970769F48A819B81309706
:1001500019F09383828304C09093670280936602B0
:10016000FE0134C06817790738F44115510519F0BC
:100170008417950708F4AC01FE018A819B819C01DC
:10018000E9012097E9F641155105A9F1CA01861B3D
:10019000970B049708F4BA01E0E0F0E02AC08D91D3
:1001A0009C91119784179507F9F46417750781F4EA
:1001B00012968D919C911397309719F093838283B7
:1001C00004C09093670280936602FD0132964CC092
:1001D000CA01861B970BFD01E80FF91F619371930C
:1001E00002978D939C9340C0FD01828193819C0175
:1001F000D9011097A1F68091640290916502892B34
:1002000041F480915F019091600190936502809329
:10021000640240916101509162014115510541F420
:100220004DB75EB780915D0190915E01481B590BFF
:100230002091640230916502CA01821B930B8617DC
:10024000970780F0AB014E5F5F4F8417950750F022
:10025000420F531F5093650240936402F90161936A
:10026000719302C0E0E0F0E0CF01DF91CF910895FB
:10027000CF93DF93009709F450C0EC0122971B82C3
:100280001A82A0916602B0916702109709F140E0CE
:1002900050E0AC17BD0708F1BB83AA83FE01219192
:1002A0003191E20FF31FAE17BF0779F48D919C9146
:1002B0001197280F391F2E5F3F4F398328831296DD
:1002C0008D919C9113979B838A834115510571F4FD
:1002D000D0936702C093660220C012968D919C91C4
:1002E0001397AD01009711F0DC01D3CFFA01D3834E
:1002F000C28321913191E20FF31FCE17DF0769F41A
:1003000088819981280F391F2E5F3F4FFA01318371
:1003100020838A819B8193838283DF91CF9108958B
:10032000A0E0B0E0E6E9F1E00C94FB106C0100976E
:1003300029F4CB010E948E006C01C1C08EEF882E83
:100340008FEF982E8C0C9D1C8601060F171F081529
:10035000190508F4B2C0F401A081B181A617B7074E
:10036000B8F0A530B10508F4AAC0CD0104978617EE
:10037000970708F4A4C01297A61BB70BF801A19326
:10038000B193D4016D937C93CF010E94380197C043
:100390007B01EA1AFB0AEEEFFFEFEE0EFF1E3601BD
:1003A0006A0E7B1EC0916602D091670244245524D8
:1003B000AA24BB244AC0C615D705E1F54881598156
:1003C0004E155F05B8F1CA0104978E159F05B0F46C
:1003D0001296A40FB51FF401B183A0832A813B813B
:1003E0004114510431F0D20113963C932E9312978D
:1003F00066C0309367022093660261C08A819B8148
:10040000F80193838283425050404E195F09518313
:1004100040834114510431F0D20113961C930E9382
:10042000129704C01093670200936602F40171836F
:10043000608345C088819981A816B90608F45C01DB
:100440002E018A819B819C01E901209709F0B3CF9D
:10045000809164029091650286159705E9F4A616CD
:10046000B706D0F420916101309162012115310568
:1004700041F42DB73EB780915D0190915E01281B3C
:10048000390B02171307C8F4109365020093640236
:10049000D4016D937C9313C0CB010E948E00EC01BC
:1004A000009759F0F40140815181B6010E948C02FD
:1004B000C6010E9438016E0102C0CC24DD24C601B1
:1004C000CDB7DEB7E0E10C9417111F93FC0199271B
:1004D0008827BC01E89411911032E9F3193010F02B
:1004E0001E30C8F31B3251F01D3249F4689406C027
:1004F0000E94A502610F711D811D911D1191105364
:100500001A30B0F33EF490958095709561957F4FC9
:100510008F4F9F4F1F910895FB01DC0102C0019096
:100520000D9241505040D8F70895FB01DC018D91A8
:10053000019080190110D9F3990B0895FB01DC019A
:1005400001900D920020E1F70895592F482F372F81
:10055000262F660F771F881F991F660F771F881F2A
:10056000991F620F731F841F951F660F771F881FC7
:10057000991F08958130910591F46F5F7F4FC1F409
:1005800084E791E00E94FA0B87E791E00E94E40380
:1005900084E891E060E071E00E94900B0895892B5F
:1005A00039F46F5F7F4F21F484E891E00E94E50BFE
:1005B000089580E090E06FEF7FEF0E94BA02089507
:1005C00081E090E06FEF7FEF0E94BA020895EF9212
:1005D000FF920F931F93DF93CF93CDB7DEB72D9785
:1005E0000FB6F894DEBF0FBECDBF84E791E069E09F
:1005F00070E00E94370D7E010894E11CF11CC701D8
:1006000064E771E045E050E020E130E004EB10E009
:100610000E94AC04A7E7B1E0F7018DE001900D92D4
:100620008150E1F787E791E00E948B048CE192E032
:1006300040E855E260E070E00E94BE068CE192E086
:1006400061E071E00E94480A2D960FB6F894DEBF73
:100650000FBECDBFCF91DF911F910F91FF90EF9013
:100660000895CF93DF93EC0166E171E00E94C40A24
:10067000882321F087E791E00E947804CE016AE1A7
:1006800071E00E94C40A882321F087E791E00E946C
:100690006204CE0161E271E00E94C40A882341F045
:1006A00087E791E040E050E060E87FE30E94FF03CD
:1006B000CE0165E271E00E94C40A882341F087E719
:1006C00091E040E050E060E070E00E94FF03DF91C5
:1006D000CF910895EF92FF920F931F93DF93CF93E3
:1006E000CDB7DEB727970FB6F894DEBF0FBECDBFEC
:1006F0008CE192E00E944507181619060CF057C0CD
:100700008CE192E00E947607682F8A3029F084E815
:1007100091E00E944A0B4BC08CE192E069E271E0EB
:100720000E94480A8CE192E064E871E00E948E0A1F
:1007300084E891E00E94B30A9B01672B79F48E0153
:100740000F5F1F4FC80164E871E00E94DA0BC80117
:100750000E943103C8010E94E50B23C0B90188271C
:1007600077FD8095982F0E94490F20E030E048ECFB
:1007700052E40E94AE0E7B018C018CE192E06CE3AE
:1007800071E00E945E098CE192E0A701B80122E0CD
:1007900030E00E94450A87E791E0A701B8010E9476
:1007A000FF0384E891E060E071E00E94AA0B2796C5
:1007B0000FB6F894DEBF0FBECDBFCF91DF911F9172
:1007C0000F91FF90EF9008950895CF93DF93EC0180
:1007D0004C815D81641775070CF4BA018E819F818D
:1007E000861797070CF4BC01798368838A859B85FB
:1007F0000E94500C88819981DF91CF910895EF92EA
:10080000FF920F931F93CF93DF93EC017A018B013B
:10081000CB01BA0120E030E040E85FE30E94F90F2D
:1008200018165CF40F2EF0E0EF2EF0E0FF2EF0E84B
:100830000F2FFFE31F2FF02D14C0C801B70120E0D8
:1008400030E040E050E00E94AA0E882354F40F2EBE
:10085000F0E0EF2EF0E0FF2EF0E00F2FF0E01F2F82
:10086000F02D68857985882777FD8095982F0E94DF
:10087000490FA80197010E94FD0F7B018C016C813B
:100880007D81882777FD8095982F0E94490F9B01D5
:10089000AC01C801B7010E94460E0E94160F9B01D1
:1008A000AC01CE01B9010E94E503DF91CF911F9108
:1008B0000F91FF90EF900895FC01828160E00E940B
:1008C000E00508950F931F938C01FC0164817581ED
:1008D0000E94E503C8010E945C04F80114861F9180
:1008E0000F910895FC01828161E00E94E005089566
:1008F000CF93DF93EC018C85882351F46C817D814B
:10090000CE010E94E503CE010E94720481E08C8733
:10091000DF91CF9108950F931F938C010E945C0487
:1009200068EC70E080E090E00E940D05F8016681BF
:100930007781828593850E94500CC8010E947204C1
:1009400060ED77E080E090E00E940D05C8010E9414
:1009500078041F910F9108950F931F93FC01842F2A
:100960001486118210827387628742835383358392
:10097000248317830683021B130B1187008761E012
:100980000E94A1051F910F9108951F920F920FB61B
:100990000F9211242F933F938F939F93AF93BF9305
:1009A00080918F0190919001A0919101B09192015D
:1009B000309193010196A11DB11D232F2D5F2D377D
:1009C00020F02D570196A11DB11D20939301809316
:1009D0008F0190939001A0939101B0939201809127
:1009E0008B0190918C01A0918D01B0918E010196A7
:1009F000A11DB11D80938B0190938C01A0938D015B
:100A0000B0938E01BF91AF919F918F913F912F91A4
:100A10000F900FBE0F901F9018959B01AC017FB7F0
:100A2000F89480918B0190918C01A0918D01B091EF
:100A30008E0166B5A89B05C06F3F19F00196A11DF8
:100A4000B11D7FBFBA2FA92F982F8827860F911D20
:100A5000A11DB11D62E0880F991FAA1FBB1F6A95D7
:100A6000D1F7BC012DC0FFB7F89480918B01909114
:100A70008C01A0918D01B0918E01E6B5A89B05C0B7
:100A8000EF3F19F00196A11DB11DFFBFBA2FA92F8D
:100A9000982F88278E0F911DA11DB11DE2E0880FB0
:100AA000991FAA1FBB1FEA95D1F7861B970B885E7B
:100AB0009340C8F2215030404040504068517C4F34
:100AC000211531054105510571F60895789484B5D5
:100AD000826084BD84B5816084BD85B5826085BD3A
:100AE00085B5816085BDEEE6F0E080818160808320
:100AF000E1E8F0E010828081826080838081816003
:100B00008083E0E8F0E0808181608083E1EBF0E0C9
:100B1000808184608083E0EBF0E08081816080836D
:100B2000EAE7F0E080818460808380818260808356
:100B30008081816080838081806880831092C10081
:100B40000895CF93DF93482F50E0CA0186569F4FF8
:100B5000FC0134914A575F4FFA018491882369F16F
:100B600090E0880F991FFC01E859FF4FA591B491BF
:100B7000FC01EE58FF4FC591D491662351F42FB775
:100B8000F8948C91932F909589238C938881892355
:100B90000BC0623061F42FB7F8948C91932F90952D
:100BA00089238C938881832B88832FBF06C09FB7AE
:100BB000F8948C91832B8C939FBFDF91CF910895F4
:100BC000482F50E0CA0182559F4FFC012491CA0171
:100BD00086569F4FFC0194914A575F4FFA0134911A
:100BE000332309F440C0222351F1233071F0243023
:100BF00028F42130A1F0223011F514C02630B1F0D4
:100C00002730C1F02430D9F404C0809180008F7760
:100C100003C0809180008F7D8093800010C084B5D8
:100C20008F7702C084B58F7D84BD09C08091B000EC
:100C30008F7703C08091B0008F7D8093B000E32F49
:100C4000F0E0EE0FFF1FEE58FF4FA591B4912FB7C4
:100C5000F894662321F48C919095892302C08C919D
:100C6000892B8C932FBF089508951F920F920FB672
:100C70000F9211242F933F934F938F939F93EF9352
:100C8000FF938091C00082FD1DC04091C60020915D
:100C9000D4013091D5012F5F3F4F2F733070809179
:100CA000D6019091D7012817390771F0E091D4014E
:100CB000F091D501EC56FE4F40833093D50120933F
:100CC000D40102C08091C600FF91EF919F918F9156
:100CD0004F913F912F910F900FBE0F901F9018953D
:100CE000E0912802F0912902E05CFF4F81919191FF
:100CF00020813181821B930B8F739070892B11F0AF
:100D00000E94340608951F920F920FB60F9211247D
:100D10002F933F938F939F93EF93FF93209118020C
:100D20003091190280911A0290911B0228173907FD
:100D300031F48091C1008F7D8093C10014C0E09197
:100D40001A02F0911B02E852FE4F208180911A0294
:100D500090911B0201968F73907090931B02809369
:100D60001A022093C600FF91EF919F918F913F91BE
:100D70002F910F900FBE0F901F901895AF92BF92BA
:100D8000DF92EF92FF920F931F93CF93DF93EC01CB
:100D90007A018B01DD24403081EE580780E068073E
:100DA00080E0780711F0DD24D39491E0A92EB12CD6
:100DB000EC89FD89DD2069F0C50108A002C0880F1B
:100DC000991F0A94E2F7808360E079E08DE390E078
:100DD00005C0108260E874E88EE190E0A8019701F8
:100DE0000E94A210215030404040504056954795F7
:100DF0003795279580E12030380720F0DD2011F06D
:100E0000DD24D6CFE889F9893083EA89FB892083FC
:100E100019A2EE89FF89408121E030E0C9010C8CE4
:100E200002C0880F991F0A94E2F7482B4083EE898D
:100E3000FF894081C9010D8C02C0880F991F0A9457
:100E4000E2F7482B4083EE89FF894081C9010E8C6F
:100E500002C0880F991F0A94E2F7482B4083EE895D
:100E6000FF8980810F8C02C0220F331F0A94E2F7A2
:100E7000209528232083DF91CF911F910F91FF9020
:100E8000EF90DF90BF90AF900895DC011C96ED913C
:100E9000FC911D97E05CFF4F219131918081918100
:100EA000281B390B2F733070C9010895DC011C9683
:100EB000ED91FC911D97E05CFF4F20813181E05462
:100EC000F040DF01AE5BBF4F8D919C9111972817C9
:100ED000390719F42FEF3FEF07C08D919C91E80F70
:100EE000F91F8081282F30E0C9010895DC011C968C
:100EF000ED91FC911D97E05CFF4F20813181E05422
:100F0000F040DF01AE5BBF4F8D919C911197281788
:100F1000390719F42FEF3FEF10C08D919C91119775
:100F2000E80FF91F20818D919C91119701968F7385
:100F3000907011969C938E9330E0C9010895DC0166
:100F400091968C919197882339F05496ED91FC916C
:100F50005597808186FFF9CF91961C920895CF9383
:100F6000DF93EC01EE85FF85E05CFF4F208131814E
:100F7000E054F0402F5F3F4F2F733070DF01AE5BC6
:100F8000BF4F8D919C91119728173907D1F3E05CE1
:100F9000FF4F80819181E054F040E80FF91F60839A
:100FA000EE85FF85E05CFF4F31832083EE89FF896A
:100FB000208181E090E00F8C02C0880F991F0A9475
:100FC000E2F7282B208381E089A3EC89FD898081C9
:100FD0008064808381E090E0DF91CF91089510924A
:100FE0001F0210921E0288EE93E0A0E0B0E0809312
:100FF000200290932102A0932202B093230287E65D
:1010000091E090931D0280931C0284E991E09093FB
:1010100029028093280288ED91E090932B0280931F
:101020002A0285EC90E090932D0280932C0284ECB0
:1010300090E090932F0280932E0280EC90E09093AA
:1010400031028093300281EC90E0909333028093E0
:10105000320282EC90E0909335028093340286EC69
:1010600090E0909337028093360284E080933802B8
:1010700083E08093390287E080933A0285E0809391
:101080003B0281E080933C020895CF92DF92EF9281
:10109000FF920F931F93CF93DF937C016B018A0123
:1010A000C0E0D0E00FC0D6016D916D01D701ED9188
:1010B000FC910190F081E02DC7010995C80FD91F5F
:1010C000015010400115110571F7CE01DF91CF914C
:1010D0001F910F91FF90EF90DF90CF900895EF92C6
:1010E000FF920F931F938C01DC01ED91FC91019015
:1010F000F081E02D6DE009957C01D801ED91FC9126
:101100000190F081E02DC8016AE009959C012E0D47
:101110003F1DC9011F910F91FF90EF900895CF934C
:10112000DF93EC016115710519F420E030E00FC088
:10113000DB010D900020E9F71197A61BB70BE881A2
:10114000F9810280F381E02DAD0109959C01C9016F
:10115000DF91CF9108954F925F927F928F929F92ED
:10116000AF92BF92CF92DF92EF92FF920F931F93B5
:10117000DF93CF93CDB7DEB7A1970FB6F894DEBF5C
:101180000FBECDBF2C01742ECB01223008F42AE013
:1011900019A231E2C32ED12CCC0EDD1E822E992451
:1011A000AA24BB24672D752FA50194010E94A210CB
:1011B00079018A01C801B701A50194010E94641058
:1011C000472D461B0894C108D1084A3010F4405DF1
:1011D00001C0495CF6014083E114F10401051105E9
:1011E00021F07E2C5F2DC801DDCFC201B6010E9427
:1011F0008F08A1960FB6F894DEBF0FBECDBFCF917A
:10120000DF911F910F91FF90EF90DF90CF90BF90F3
:10121000AF909F908F907F905F904F900895DC01EA
:101220002115310541F4ED91FC910190F081E02D03
:10123000642F099508950E94AB080895CF92DF921C
:10124000EF92FF920F931F93CF93DF93EC016A010C
:101250007B012115310541F4E881F9810190F0818C
:10126000E02D642F09951FC02A303105D1F477FF96
:1012700017C0E881F9810190F081E02D6DE20995B8
:101280008C0144275527BA014C195D096E097F0965
:10129000CE012AE00E94AB089801280F391F04C034
:1012A0002AE00E94AB089C01C901DF91CF911F91F8
:1012B0000F91FF90EF90DF90CF9008950E948F08DC
:1012C00008957F928F929F92AF92BF92CF92DF92BA
:1012D000EF92FF920F931F93CF93DF934C017A010C
:1012E0008B01722ECB01BA01A80197010E946010F8
:1012F000882321F0C4016FE471E021C0C0E0D0E098
:1013000057016801E894D7F8C601B5012FEF3FEF08
:101310004FE75FE70E946010882351F4C601B501D2
:101320002FEF3FEF4FE75FE70E94AA0E181614F069
:10133000C1E0D0E0219739F0C40163E571E00E947B
:101340008F08EC0193C0C801B7012FEF3FEF4FE7C3
:101350005FE40E94F90F181654F0C801B7012FEF8F
:101360003FEF4FE75FEC0E94AA0E882324F4C401EC
:1013700067E571E0E4CFC801B70120E030E040E06C
:1013800050E00E94AA0E87FD03C0C0E0D0E00EC06E
:10139000D401ED91FC910190F081E02DC4016DE24A
:1013A0000995EC0117FB109517F9109520E030E036
:1013B00040E05FE3DD240BC0CA01B90120E030E06A
:1013C00040E251E40E94AE0E9B01AC01D394D714CD
:1013D00098F3C801B7010E94460E5B016C010E94A0
:1013E0001B0F7B018C01C401B801A7012AE030E08A
:1013F0000E940F09C80FD91F772039F0C4016BE58F
:1014000071E00E948F08C80FD91FC801B7010E9460
:10141000470F9B01AC01C601B5010E94450E24C0D7
:1014200020E030E040E251E40E94FD0F7B018C019E
:101430000E94160F5B016C01CC24B7FCC094DC2C1D
:10144000C401B601A5012AE030E00E941E09C80FC0
:10145000D91FC601B5010E94490F9B01AC01C8010B
:10146000B7010E94450E7A947720D1F6CE01DF9124
:10147000CF911F910F91FF90EF90DF90CF90BF9091
:10148000AF909F908F907F9008950E94610908957A
:10149000EF92FF920F931F937C010E948F088C01A3
:1014A000C7010E946F08080F191FC8011F910F91F3
:1014B000FF90EF900895AF92BF92CF92DF92EF929C
:1014C000FF920F931F93CF93DF935C016B01EE2488
:1014D000FF24C0E0D0E010C0D501ED91FC91008167
:1014E0001181C601BE010E94A20A682FC501F80140
:1014F0000995E80EF91E2196F60184819581C81799
:10150000D90750F3C701DF91CF911F910F91FF9041
:10151000EF90DF90CF90BF90AF900895EF92FF9241
:101520000F931F937C010E945B0A8C01C7010E94EC
:101530006F089C01200F311FC9011F910F91FF906F
:10154000EF900895FC01848195816817790748F42C
:101550000190F081E02D309721F0E60FF71F808198
:10156000089580E00895FC0180819181009729F41D
:1015700020E030E040E050E004C00E9465029B01A2
:10158000AC01B901CA010895DC01FB0114968D91EB
:101590009C911597892B31F461157105A9F090E0A4
:1015A000808108C00D90BC91A02D6115710529F4B2
:1015B00090E08C91882349F407C0CD010E949502E8
:1015C0009C0190E0232B09F491E0892F08950F935B
:1015D0001F93CF93DF93EC018B016F5F7F4F888167
:1015E00099810E949001009711F480E005C09983D1
:1015F00088831B830A8381E0DF91CF911F910F9134
:101600000895CF93DF93EC0188819981892B29F08C
:101610008A819B818617970760F4CE010E94E70AB2
:10162000882341F08C819D81892B19F4E881F9810F
:10163000108281E0DF91CF910895EF92FF920F9396
:101640001F93CF93DF93EC017B016C817D81E114CB
:10165000F104C1F04115510599F08A01060F171FD9
:10166000B8010E94010B882369F0888199812C813F
:101670003D81820F931FB7010E949E021D830C8340
:1016800081E001C080E0DF91CF911F910F91FF9029
:10169000EF900895DF93CF9300D0CDB7DEB7698385
:1016A0001A82BE016F5F7F4F41E050E00E941D0B28
:1016B0000F900F90CF91DF910895CF93DF93EC01BE
:1016C00088819981009711F00E943801198218824F
:1016D0001D821C821B821A82DF91CF910895EF92A6
:1016E000FF920F931F93CF93DF93EC017B018A014D
:1016F000BA010E94010B882321F4CE010E945D0BE8
:1017000007C01D830C8388819981B7010E949E02C6
:10171000CE01DF91CF911F910F91FF90EF9008952F
:10172000CF93DF93EC01198218821B821A821D82EB
:101730001C821E826115710551F0DB010D900020A5
:10174000E9F71197A61BB70BAD010E946F0BDF9154
:10175000CF9108950F931F93182F092F61157105CD
:1017600059F0DB010D900020E9F71197A61BB70B8C
:10177000AD010E946F0B02C00E945D0B812F902F64
:101780001F910F910895CF93DF93EC01FB01861712
:10179000970761F0608171816115710529F04481BD
:1017A00055810E946F0B02C00E945D0BCE01DF913C
:1017B000CF910895FC01118210821382128215824A
:1017C000148216820E94C30B0895FC0180819181CE
:1017D0000E9438010895CF93DF930E9466050E940E
:1017E000E702C0E7D6E00E946A032097E1F30E9477
:1017F0007006F9CFFC0180913E028C3090F480831A
:101800008F5F80933E02815090E0FC01EE0FFF1F3E
:10181000E80FF91FE15CFD4F88EB9BE09283818329
:1018200008958FEF80830895FC0120812C30B8F556
:101830008181992787FD909548E850E0481B590B16
:10184000440F551F440F551F6417750784F082819C
:10185000992787FD909548E552E0481B590B440FA6
:10186000551F440F551F641775070CF4AB01425008
:101870005040CA01AA2797FDA095BA2F880F991F3B
:10188000AA1FBB1F4FB7F89430E0F901EE0FFF1FFE
:10189000E20FF31FE15CFD4F928381834FBF0895F8
:1018A000AF92BF92CF92DF92EF92FF920F931F936E
:1018B000CF93DF93EC019B0182E0603278070CF05C
:1018C00048C077FF03C020E030E005C0653B7105EC
:1018D00014F024EB30E000D000D0B901882777FD68
:1018E0008095982F2981332727FD3095E8E8AE2E83
:1018F000B12CA21AB30AAA0CBB1CAA0CBB1CCC2488
:10190000B7FCC094DC2CEA81FF27E7FDF09528E5C1
:1019100032E02E1B3F0B220F331F220F331F4427B1
:1019200037FD4095542FEDB7FEB7218332834383B3
:10193000548320E030E040E050E004EBE02EF12C56
:10194000012D112D0E94FC0D9B010F900F900F9007
:101950000F90CE01B9010E94140CDF91CF911F911D
:101960000F91FF90EF90DF90CF90BF90AF900895D0
:10197000CF92DF92EF92FF921F93CF93DF93EC0110
:10198000162F7A01690188818C3008F064C0862F97
:1019900061E00E94A105888190E0FC01EE0FFF1F2D
:1019A000E80FF91FE15CFD4F1F738081807C812B64
:1019B000808380E292E08E199F0964E070E00E94CB
:1019C0008F10698380E699E08C199D0964E070E0CE
:1019D0000E948F106A83A8818A2F6CE00E94831076
:1019E000682F90E0AC01440F551F480F591F440F5A
:1019F000551F440F551F20E030E0C901840F951F8B
:101A0000FC01EE0FFF1FE80FF91FE15CFD4F808125
:101A100086FD15C02F5F3F4F2C30310571F724C074
:101A20001092800082E080938100109285001092D5
:101A30008400B19A80916F00826080936F008A2F3A
:101A400090E0FC01EE0FFF1FE80FF91FE15CFD4F76
:101A50008081806480838881DF91CF911F91FF9086
:101A6000EF90DF90CF9008956623D1F2E8CF40E267
:101A700052E020E639E00E94B80C08951F920F92C0
:101A80000FB60F9211242F933F934F935F936F9351
:101A90007F938F939F93AF93BF93EF93FF93809127
:101AA000630287FF05C010928500109284002BC04E
:101AB00020916302332727FD309580913E0290E00C
:101AC0002817390704F580916302992787FD9095BF
:101AD000FC01EE0FFF1FE80FF91FE15CFD4F808155
:101AE00086FF11C080916302992787FD9095FC01C4
:101AF000EE0FFF1FE80FF91FE15CFD4F80818F7330
:101B000060E00E94E005809163028F5F8093630232
:101B100020916302332727FD309580913E0290E0AB
:101B2000281739070CF04EC0809163028C300CF0FE
:101B300049C02091840030918500809163029927EB
:101B400087FD9095FC01EE0FFF1FE80FF91FE15C88
:101B5000FD4F81819281280F391F30938900209396
:101B6000880080916302992787FD9095FC01EE0F14
:101B7000FF1FE80FF91FE15CFD4F808186FF2BC03E
:101B800080916302992787FD9095FC01EE0FFF1F5E
:101B9000E80FF91FE15CFD4F80818F7361E00E94C7
:101BA000E00519C080E49CE905C080918400909113
:101BB0008500049690938900809388008FEF80932E
:101BC000630209C08091840090918500049680543E
:101BD0009C4940F3EACFFF91EF91BF91AF919F9164
:101BE0008F917F916F915F914F913F912F910F90C6
:101BF0000FBE0F901F9018952F923F924F925F92B9
:101C00006F927F928F929F92AF92BF92CF92DF920C
:101C1000EF92FF920F931F93DF93CF93CDB7DEB771
:101C20003B014C0119012A016D897E898F89988DAC
:101C30006A197B098C099D09621A730A840A950A3C
:101C4000A40193010E946410E218F3080409150925
:101C5000A80197010E94C4102A0D3B1D4C1D5D1D5B
:101C6000B901CA01CF91DF911F910F91FF90EF90C1
:101C7000DF90CF90BF90AF909F908F907F906F90AC
:101C80005F904F903F902F9008955058BB27AA2700
:101C90000ED075C166D130F06BD120F031F49F3F8A
:101CA00011F41EF45BC10EF4E095E7FB51C1E92F7E
:101CB00077D180F3BA17620773078407950718F086
:101CC00071F49EF58FC10EF4E0950B2EBA2FA02D66
:101CD0000B01B90190010C01CA01A0011124FF27D9
:101CE000591B99F0593F50F4503E68F11A16F040D4
:101CF000A22F232F342F4427585FF3CF46953795D3
:101D00002795A795F0405395C9F77EF41F16BA0B97
:101D1000620B730B840BBAF09150A1F0FF0FBB1F45
:101D2000661F771F881FC2F70EC0BA0F621F731F8E
:101D3000841F48F4879577956795B795F7959E3FEB
:101D400008F0B3CF9395880F08F09927EE0F979579
:101D500087950895D9D008F481E008950CD00FC17B
:101D600007D140F0FED030F021F45F3F19F0F0C011
:101D7000511139C1F3C014D198F39923C9F35523F4
:101D8000B1F3951B550BBB27AA276217730784076E
:101D900038F09F5F5F4F220F331F441FAA1FA9F324
:101DA00033D00E2E3AF0E0E830D091505040E69516
:101DB000001CCAF729D0FE2F27D0660F771F881F77
:101DC000BB1F261737074807AB07B0E809F0BB0B66
:101DD000802DBF01FF2793585F4F2AF09E3F51058A
:101DE00068F0B6C000C15F3FECF3983EDCF3869527
:101DF00077956795B795F7959F5FC9F7880F911D00
:101E00009695879597F90895E1E0660F771F881FEB
:101E1000BB1F621773078407BA0720F0621B730B9E
:101E2000840BBA0BEE1F88F7E095089504D06894F0
:101E3000B111D9C00895BCD088F09F5790F0B92F48
:101E40009927B751A0F0D1F0660F771F881F991F0F
:101E50001AF0BA95C9F712C0B13081F0C3D0B1E021
:101E60000895C0C0672F782F8827B85F39F0B93F31
:101E7000CCF3869577956795B395D9F73EF4909511
:101E80008095709561957F4F8F4F9F4F0895E8948F
:101E900009C097FB3EF490958095709561957F4FB2
:101EA0008F4F9F4F9923A9F0F92F96E9BB27939560
:101EB000F695879577956795B795F111F8CFFAF470
:101EC000BB0F11F460FF1BC06F5F7F4F8F4F9F4FA1
:101ED00016C0882311F096E911C0772321F09EE8FF
:101EE000872F762F05C0662371F096E8862F70E065
:101EF00060E02AF09A95660F771F881FDAF7880F3F
:101F00009695879597F90895990F0008550FAA0B94
:101F1000E0E8FEEF16161706E807F907C0F01216FC
:101F20001306E407F50798F0621B730B840B950BFF
:101F300039F40A2661F0232B242B252B21F4089554
:101F40000A2609F4A140A6958FEF811D811D0895F1
:101F500097F99F6780E870E060E008959FEF80EC5C
:101F6000089500240A9416161706180609060895FF
:101F700000240A9412161306140605060895092E65
:101F80000394000C11F4882352F0BB0F40F4BF2BD4
:101F900011F460FF04C06F5F7F4F8F4F9F4F089514
:101FA00057FD9058440F551F59F05F3F71F047950A
:101FB000880F97FB991F61F09F3F79F087950895EF
:101FC000121613061406551FF2CF4695F1DF08C00E
:101FD000161617061806991FF1CF8695710561052B
:101FE00008940895E894BB2766277727CB0197F9D3
:101FF00008958ADF08F48FEF08950BD0C0CFB1DFCA
:1020000028F0B6DF18F0952309F0A2CFA7CF11244E
:10201000EACFC6DFA0F3959FD1F3950F50E0551F8F
:10202000629FF001729FBB27F00DB11D639FAA272D
:10203000F00DB11DAA1F649F6627B00DA11D661F7C
:10204000829F2227B00DA11D621F739FB00DA11D9D
:10205000621F839FA00D611D221F749F3327A00D57
:10206000611D231F849F600D211D822F762F6A2FF3
:1020700011249F5750408AF0E1F088234AF0EE0F78
:10208000FF1FBB1F661F771F881F91505040A9F785
:102090009E3F510570F05CCFA6CF5F3FECF3983EBA
:1020A000DCF3869577956795B795F795E7959F5FEC
:1020B000C1F7FE2B880F911D9695879597F9089586
:1020C00023DF880B990B0895629FD001739FF00165
:1020D000829FE00DF11D649FE00DF11D929FF00DB8
:1020E000839FF00D749FF00D659FF00D9927729FEF
:1020F000B00DE11DF91F639FB00DE11DF91FBD017A
:10210000CF0111240895991B79E004C0991F9617F7
:1021100008F0961B881F7A95C9F78095089597FB5C
:10212000092E07260AD077FD04D049D006D000201A
:102130001AF4709561957F4F0895F6F79095819503
:102140009F4F0895A1E21A2EAA1BBB1BFD010DC0D3
:10215000AA1FBB1FEE1FFF1FA217B307E407F50757
:1021600020F0A21BB30BE40BF50B661F771F881F33
:10217000991F1A9469F760957095809590959B01C9
:10218000AC01BD01CF01089597FB092E05260ED0A5
:1021900057FD04D0D7DF0AD0001C38F45095409585
:1021A000309521953F4F4F4F5F4F0895F6F790952B
:1021B0008095709561957F4F8F4F9F4F0895AA1B13
:1021C000BB1B51E107C0AA1FBB1FA617B70710F022
:1021D000A61BB70B881F991F5A95A9F78095909554
:1021E000BC01CD010895EE0FFF1F0590F491E02D85
:1021F00009942F923F924F925F926F927F928F92AB
:102200009F92AF92BF92CF92DF92EF92FF920F9385
:102210001F93CF93DF93CDB7DEB7CA1BDB0B0FB68F
:10222000F894DEBF0FBECDBF09942A88398848884C
:102230005F846E847D848C849B84AA84B984C884E2
:10224000DF80EE80FD800C811B81AA81B981CE0FD9
:10225000D11D0FB6F894DEBF0FBECDBFED010895BE
:1022600010E0C6ECD0E004C0FE010E94F5102296FA
:0A227000C83CD107C9F7F894FFCF6E
:10227A0000526561647920666F722074616B652013
:10228A006F66662E2E0061726D0064697361726DED
:10229A00006D6178006D696E00436F6D6D616E64EB
:1022AA002072656365697665643A200053657474C3
:1022BA00696E6720737065656420746F3A20006EDA
:1022CA00616E00696E66006F7666002E00200068F7
:1022DA0002000000000000AF0745084507760756D0
:0422EA00079F070043
:00000001FF
